:1000000035C065C064C063C062C061C060C05FC00D
:100010005EC05DC05CC05BC05AC059C03DC357C024
:1000200056C06BC36AC353C052C051C050C04FC00A
:100030004EC04DC045464765666700202B2D2E30CB
:10004000313233343536373839680003FF03FF0364
:10005000FD01FF03FF03FD01FF03FD01FF01FF01A0
:10006000FD01FF03FF03FF01F9006D0C11241FBE0A
:10007000CFEFCDBFDFE3DEBF809140008093400033
:10008000811105C098ED21E094BF209341008CBB05
:100090001EE3A0E0BEE3E2EAFBE102C005900D92A0
:1000A000A230B107D9F72EE3A2E0BEE301C01D9252
:1000B000A13CB207E1F710E0C6E3D0E003C021970E
:1000C000FE0134DDC533D107D1F77CD441CD98CFC3
:1000D0009FB7F89488E08093840A80918E0A81FF0C
:1000E000FCCF80918D0AE091A20AF091A30A2091A1
:1000F0002F3E3091303E4091313E5091323E9FBF75
:1001000080FF07C0E730F10520F42F5F3F4F4F4FCE
:100110005F4FAEEFB1E000DD6E0F7F1F811D911DBF
:10012000660F771F881F991F08950F931F93CF9312
:10013000DF93CDB7DEB72797CDBFDEBF8091B43E4A
:100140009091B53E892B09F463C08091B23E8C300A
:100150000CF05EC0BDDF0091BA3E1091BB3E209115
:10016000BC3E3091BD3E601B710B820B930B623322
:1001700071058105910570F3F8948091B03E9091DE
:10018000B13E89839A83A091B43EB091B53EFD0102
:1001900031968C918F83A091BE3EB091BF3E9C91D1
:1001A0008091C03E982B9E839C91809589238D835E
:1001B0008D818C8388E08B835E816D814F813B8153
:1001C0002C8189819A815C93000047FD252F3A9507
:1001D0002C930000262F39F0441F00C000006C93C0
:1001E00000C000C0F0CF38E041916C9300C001978F
:1001F00051F74F833B832C8389839A83789468DFFC
:100200006093BA3E7093BB3E8093BC3E9093BD3EDC
:100210002796CDBFDEBFDF91CF911F910F9108953B
:10022000CF93DF93FC0180913F3E9091403E309709
:1002300059F410920A0682E090E08093433E909336
:10024000443EDF91CF910895248524FD05C022818D
:1002500033812817390721F00190F081E02DE7CF95
:10026000E0933B3EF0933C3EC0E0D6E085899FE3BF
:10027000882319F0928592959F708385258130E0BF
:100280002EA33FA3268130E02AA73BA78B31E8F4B9
:100290008C5F8D838185282F2F7020612A83288D84
:1002A0002360288F278130852A8F3B8F9C8F9285F2
:1002B0009F70998382958F70898F81E88883848568
:1002C00082FD05C081E08887BCCF8FE1E2CF81E06D
:1002D0008987B7CF1F93CF93DF93FC01848580FD7F
:1002E0009EC083FF9CC0877F8487C585D6859589FE
:1002F0007689911198C017813085632F607CC11574
:1003000022E0D20718F1CE018F5F91408430910531
:1003100008F479C0228120FF05C0969587955FEF8C
:10032000BAEF0AC0813021E0920720F0605CCE0174
:100330008F5E924051E0B6E0A12FA295AF70432F9F
:100340004F7032953F70232F23703AC08FEF91E0AA
:100350008C1B9D0B8430910508F455C0228120FF31
:1003600003C096958795E6CF813021E09207B8F2D9
:100370006034A8F260548FE091E08C1B9D0BCFCFCE
:10038000352F320F343030F48F5C9109232F803DAC
:100390009105B0F78631910538F5403128F0322FBC
:1003A000350F343030F1451B8230910528F5A031EE
:1003B00038F0450F403128F1250F243068F54B1BEC
:1003C0008230910520F7A295A07F2295207F462BB1
:1003D000242B1F70A12B322F2A2F278330877B30AD
:1003E000D8F47F5F768B1BC0450F4031C0F6459730
:1003F000D1CF4B1B232FD8CFA50FA031D0F602971A
:10040000D3CFAB1BDDCFC787D08B848582FFB3C032
:1004100080E8168A858B03C0848581608487DF919C
:10042000CF911F91089547855089C41BD50B90FF2C
:1004300007C0CB36DF4F9CF4743098F280E0E9CFF0
:1004400091FF0FC01C161D0654F0CA36DF4F0CF486
:100450008CC041505109703120F24787508B84E0A5
:100460001BC092FF1CC0CA368FEFD8070CF47DC0AA
:10047000A189B289CA17DB070CF07BC04B565140EB
:100480004B325140D8F6CF3F8FEFD8070CF46FC0F6
:1004900088E022970CF4A5CF9813BBCFA2CF93FF8F
:1004A0000EC0D7FDDCCFA189B289CA17DB070CF0DB
:1004B00060C0703108F495CF4F5F5F4FCECF94FF8F
:1004C00008C0733080F441895289C417D5073CF2C3
:1004D00088CF95FF0AC0733010F6418952894C17B6
:1004E0005D070CF07ECF80E4D7CF96FF0BC0793C40
:1004F00008F0A4CF43895489C417D5070CF071CFF5
:1005000080E2CACF97FF6DCF848582FD1EC0A1898E
:10051000B28980E4AC17BD070CF084E01092413E34
:100520001092423ECF3F2FEFD2078CF44150510939
:100530004787508B209114063091150621503109C0
:100540002093140630931506A7CF892FEBCF22975F
:100550000CF4A2CF4F5F5F4F4787508B209114065A
:10056000309115062F5F3F4FEBCF81E095CF82E0B2
:1005700093CF80E191CF84E04CCFCF93FB01A82FA4
:10058000B0E02091AE3E3091AF3EA217B307B0F578
:10059000C281418160812091B33E222361F0629F3C
:1005A000B0011124672F249FA0011124452F2C9FF7
:1005B00090011124C32FE091B93E2091B43E3091B7
:1005C000B53E9091B63EE9131BC0F90153E0859FFB
:1005D000E00DF11D1124CF01E091B63EE80FF92F97
:1005E000F11D6083E091B73EE80FF92FF11D4083C4
:1005F0003091B83E830F911DFC01C083CF910895C7
:10060000CD01880F991F880F991F820F931FE80F44
:10061000F92FF11D1082E0CF97FF02C00F96FCCF9B
:100620006FE070E066DA08958F3008F4A6CF089581
:100630000F931F93CF93DF938C01D62FC0E0B801A7
:100640008C2FF2DFCF5FCF30D1F7DD2329F0DF91A0
:10065000CF911F910F9169CDDF91CF911F910F9194
:1006600008951092A73E1092A83E1092AA3E1092B2
:10067000AB3E1092AC3E1092AD3EE6E9FEE3119225
:100680008EE3E53AF807D9F71092A53E1092A63E00
:1006900061E089E99BE9CCCF8F9381E080938D0A5B
:1006A0008FB78F93EF93FF93EFE2FEE39F936894EE
:1006B0008FEF0FC0E894848195818C5E9F4F848377
:1006C0009583885E934010F08FEF03C084839583F9
:1006D0008EEF9081981B919390819F4F9193908181
:1006E0009F4F919390819F4F919326F39F91FF91FC
:1006F000EF918F918FBF8F9118951F920F920FB628
:100700000F9211242F933F934F935F936F937F9397
:100710008F939F93AF93BF93CF93DF93EF93FF9309
:10072000C0E0D6E0E0913B3EF0913C3E3097F1F0E6
:1007300018823B858889998922852F7002C09695F9
:1007400087952A95E2F785879687848588608487D0
:10075000848582FF23C0848531FF1BC0826084872B
:1007600080E190E08093433E9093443EFF91EF916F
:10077000DF91CF91BF91AF919F918F917F916F91B9
:100780005F914F913F912F910F900FBE0F901F904F
:1007900018958D7F848788E090E0E4CF80819181F7
:1007A0003FDDE4CFABE0B0E0E7EDF3E0BCC86C01C7
:1007B0007B013A01FC0116821782838181FFFFC011
:1007C000CE0101964C01F601B380F701B3FC05910F
:1007D000B3FE01917F01002341F1053239F4B3FCEE
:1007E0000591B3FE01917F01053239F5B601802FE5
:1007F00090E0D1D853013501E6CF1068F701B3FC82
:100800000591B3FE01917F0117FD0DC0002369F032
:10081000602F70E08BE390E0B3D8892B79F7033237
:1008200051F00C3651F301110AC0F601868197810F
:100830002B96EEE091C810E1E1CF10E0E5CF602FFC
:1008400070E084E390E09CD8892B49F05301F4E0F8
:10085000AF0EB11CB6018FE390E09DD8CCCF03362C
:1008600009F452C0033709F459C0033509F455C0DF
:10087000043619F0093609F070C0530117FF62C041
:10088000F4E0AF0EB11CF30160817181828193812C
:100890001F7E97FF08C090958095709561957F4F5A
:1008A0008F4F9F4F10642AE030E0A401A4D8082F96
:1008B000081916FF04C0B6018DE290E06CD814FF51
:1008C00013C0FE01E00FF11D8081803369F0B60195
:1008D00080E390E060D812FF07C01072812F90E093
:1008E000B601885A9F4F57D8015010E00F5F1F4F35
:1008F000080D191DF80182918F01B60190E04BD8C7
:1009000008151905B9F777CF530182E0A80EB11C7D
:10091000B601F30180819181A0CF11605301F2E013
:10092000AF0EB11CF30160807180F30110FD859161
:1009300010FF81913F01882309F45DCFB60190E05B
:100940002AD8F3CFF2E0AF0EB11CF30160817181C0
:10095000072E000C880B990B9BCF003709F140F450
:10096000083501F10F3609F060CF28E030E00CC007
:10097000053739F0083709F058CF146220E130E02C
:1009800003C01F7E2AE030E0530117FF0FC0F4E0E0
:10099000AF0EB11CF301608171818281938185CF9B
:1009A0001061EBCF146020E132E0EECFF2E0AF0E49
:1009B000B11CF3016081718190E080E076CF8FEF10
:1009C0009FEF36CFCF93DF93CDB7DEB76E97CDBF16
:1009D000DEBF88ED90E084BF90936100E0E0F6E038
:1009E00083E582838AE0858380E2838381E080835C
:1009F000109202028093030A9EEF9093260A90932E
:100A0000270A9BE09093000AE0E8FAE02DEF31E03E
:100A100026A737A7118290E89283848781E180839B
:100A2000789494E09093210480913204877F80939E
:100A3000320488E08093210480913304877F80937F
:100A40003304909325048091200482FD08C09FB751
:100A5000F894809132048860809332049FBF809123
:100A6000010A8B7F8093010A61E089E99BE9E0DD5F
:100A700080913D3E90913E3E20E93BE9E5E4FEE376
:100A800013E9412E1BE9512E04E0602E712C44E045
:100A9000842E54E1A52EB12C6AE070E007E615E043
:100AA000A3E02A2EB4E8EB2EBBE9FB2E40E5C42ED2
:100AB000D12CD9014D919D01912C4C3028F4A42FBB
:100AC000B0E0AC57B4469C90FE3309F022C1DC0183
:100AD000009709F015C11482CF01158296826282B7
:100AE0007382992009F415C18286A18AB28A638B28
:100AF000748B07831087218640912206509123062C
:100B0000492940932206509323064EE75BE9DA0118
:100B10003D90AD01A32DB0E0BC5F90FC8C9296940B
:100B2000E416F506A1F7A4EFA287C18AD28A638BE7
:100B3000748B77964216530609F0BBCF80933D3EE7
:100B400090933E3E8EDD2091549B3091559B409179
:100B5000569B2C833D834E838091579B9091589B4D
:100B6000A091599B8F839887A98720915A9B309198
:100B70005B9B40915C9B2A873B874C8780915D9B68
:100B800090915E9BA0915F9B8D879E87AF87209100
:100B9000609B3091619B4091629B288B398B4A8B83
:100BA0008091639B9091649BA091659B8B8B9C8BA8
:100BB000AD8B2091669B3091679B4091689B2E8BFB
:100BC0003F8B488F8091699B90916A9BA0916B9B12
:100BD000898F9A8FAB8F20919C9B30919D9B4091E8
:100BE0009E9B2C8F3D8F4E8F212C76E0372EE3E09D
:100BF0008E2EBB24B394F2E0AF2E04E010E0A8E206
:100C00009A2EBDE0EB2EF12C8FB7F8944090333E36
:100C10005090343E6090353E7090363E8FBF80914C
:100C2000923E9091933EA091943EB091953EA30147
:100C30009201281B390B4A0B5B0BDA01C901409763
:100C4000A105B10508F4CEC04092923E5092933E69
:100C50006092943E7092953E8091433E9091443EC6
:100C600088719927892B09F470C08091413E909139
:100C7000423E0097A1F02091433E3091443E2ADB52
:100C80008091413E9091423E892B09F057C01092CD
:100C90003F3E1092403E1092433E1092443E80915F
:100CA000393E90913A3E9201281B390B243131058F
:100CB00008F498C044968093393E90933A3E8091D0
:100CC000433E9091443E892B09F08CC0F101809104
:100CD000433E9091443E89799927892B09F082C03F
:100CE000A0913D3EB0913E3E12962D913C911397BE
:100CF000108E20FF47C040EE408F168E48C0DA01AC
:100D00004D915C91119741155105C9F7EA17FB0701
:100D100069F480933D3E90933E3E84E289831A823B
:100D20001B8261E0CE01019683DCFFCFED93FC9343
:100D3000119714964C914F5F4483CFCEA0920A0630
:100D40000093433E1093443EAACF8091433E90913E
:100D5000443E029709F0A3CF1092433E1092443EC6
:100D6000C0903D3ED0903E3EC114D10429F4109273
:100D70003F3E1092403E93CFC601ACDAD601CD90F3
:100D8000DC90F2CF23FF93C0908E56E8568F1082EE
:100D900013828386332720933F3E3093403E8091D9
:100DA000413E9091423E009709F485C0A286A482FC
:100DB000DC011F962D913C91509751964D915C917D
:100DC0005297240F351F1A964C914F7002C0220F74
:100DD000331F4A95E2F7248B358B0093433E1093E3
:100DE000443E1EDA80915A3E807609F06EC08091B2
:100DF000713E807609F069C09091883E907681E0DE
:100E000009F480E09091913E981751F08093913EC3
:100E100040928D3E50928E3E60928F3E7092903EF8
:100E200080918D3E90918E3EA0918F3EB091903EEC
:100E3000A3019201281B390B4A0B5B0BDA01C90194
:100E40008397A105B10558F09091913E80918B3E1A
:100E500020918C3E29133BC0882309F454C0809113
:100E6000AA3E9091AB3EA091AC3EB091AD3EA301A5
:100E70009201281B390B4A0B5B0BDA01C901B7FD44
:100E8000C3CEE091A93EED3008F021C5F0E0E65B6D
:100E9000F84F099447C097C0EBC01DC177C1C5C1C9
:100EA000E4C159C2C9C23AC38DC34CC4BBC422FFFA
:100EB00099CF908E22CFB2861482E1E0F0E0E093E9
:100EC000433EF093443ECD018CCF81E09BCF909385
:100ED0008C3E992329F08823B1F0B0928A3EBFCF8F
:100EE000882389F080918A3E882309F4B8CF109234
:100EF0008A3E8091A93E90E00196B701FAD5809391
:100F0000A93EAFDBACCF80918C3E8111A8CF34EFEE
:100F1000431631E053066104710408F4A0CFB09287
:100F20008B3E9DCFF12CE12C912C3FE0C32ED12C98
:100F300045E5342E54E2852E64E5A62EB12C0091B1
:100F4000A73E1091A83EC701B601BFD5862F800FDE
:100F5000632DAFD5282F989DC0011124B501B5D5BB
:100F6000962F882D861B222331F0213051F1262F18
:100F7000982F80E003C0282F862F90E029838A8352
:100F80009B83BE016F5F7F4F892D4EDB9394F3945B
:100F90004FE09412D4CFC9D80E5F1F4F0093A73EE5
:100FA0001093A83E0DE210E0400E511E611C711C12
:100FB0004092AA3E5092AB3E6092AC3E7092AD3EE3
:100FC00013CE20E0DBCFE090A73EF090A83EC70113
:100FD0006FE070E07AD55C0110E000E09FE0C92E80
:100FE000D12C26E0922E302FC8018A0D9B1DB60110
:100FF00080D5AC01949EC001959E900D1124B60140
:1010000064D5623079F150F4662341F180E09AE0D2
:10101000613031F184E290E022E107C0633029F1D0
:1010200084E290E06430B1F720E029839A838B83D7
:10103000BE016F5F7F4F832FF7DA0F5F1F4F0F30B7
:10104000110589F672D8C7010196B8013ED5809383
:10105000A73E9093A83E0CE810E0A6CF80E090E079
:1010600024E2E3CF80E092E1FBCF80E094E2DCCFAA
:101070000091A73E1091A83E802F8F73803218F008
:101080009FE3981B892F5BEE859FC00111246FE1C0
:1010900070E01BD544E1460F1982A4E24A9FC001CB
:1010A00011242FEF30E0B90110D56A83B5E04B9FD2
:1010B000C0011124B90109D56B8360E0CE0101960E
:1010C000B7DA33D80F5F1F4F0093A73E1093A83EA7
:1010D00003E210E069CF0091A73E1091A83EC8013D
:1010E0006CE170E0F2D4E82EEEE0E81718F49CE131
:1010F000E92EE81AF12CDD24D39484E2C82E8F2D3A
:101100008E19EF1410F08E2D8F191982DA82811149
:101110001FC02C8D3D8D4E8D29833A834B83BAE0C1
:10112000FB1203C0C9821A821B82BE016F5F7F4F10
:101130008F2D7ADAF3943FE0F312E1CFF6D70F5F09
:101140001F4F0093A73E1093A83E01E410E02CCF60
:10115000813039F4898D9A8DAB8D89839A83AB83E5
:10116000DECF823061F01B82EAE0FE12DECFBE01EC
:101170006F5F7F4F8AE058DA8BE0F82EC0CF2E8960
:101180003F89488D29833A834B83EECF16E9E12EC0
:101190001EE3F12EF7018081853008F444C08450AD
:1011A000808331964EE3E53AF407A9F72091003E9B
:1011B0003091013E4DE6429FC001439F900D1124A6
:1011C000875A9F4F8093003E9093013E0091A73E27
:1011D0001091A83E00FD0AC0892F90E06FE070E0FA
:1011E00074D4FC01EA56F14C84E28083D12CD701FF
:1011F0008D917D0119828A838695869586958B834C
:10120000BE016F5F7F4F8D2D0FDAD394BFE0DB12ED
:10121000EECF8BD70F5F1F4F0093A73E1093A83ED2
:1012200006E410E0C1CE1082BCCF0091A73E109121
:10123000A83EC8016EE170E048D4FC01E55BFF4FB9
:10124000F4908FE99BE91F141CF0F19489E99BE964
:1012500061E0EED90F5F1F4F0093A73E1093A83EA9
:10126000ECE8FE9E800111249FCE0091A73E1091D4
:10127000A83EC80163E170E028D40F5F1F4F8111C1
:101280000BC061E083E99BE9D3D90093A73E10939B
:10129000A83E0BE410E088CE813029F461E089E9B2
:1012A0009BE9C6D988C1823059F461E083E99BE9A2
:1012B000BFD90093A73E1093A83E0DE710E074CE6F
:1012C000833059F461E089E99BE9B2D90093A73EE4
:1012D0001093A83E04EA11E067CEECEFEE2EE80E84
:1012E00081E089831A821B8260E0CE010196A0D939
:1012F000D12CC12CF12CFFE0EF0EF11CFFE0AF2E42
:10130000B12CA7E09A2EB2E18B2EC7018C199D0952
:10131000B501EFD363E97BE9882341F08130B9F46B
:1013200089821A821B82BE016F5F7F4F8C2D7CD910
:101330002FEFC21AD20A3FE0C316D10431F7F5D617
:101340000093A73E1093A83E00E310E02DCE82301C
:1013500079F79982E6CF8091A73E9091A83E6BE302
:1013600070E0B3D38C01803158F54CED80FF41E43F
:1013700054E2459FC00111242FEF30E0B901A5D3FD
:101380006983ACE04A9FC0011124B9019ED36A83EE
:101390001B8260E0CE0101964BD903701127023009
:1013A000110508F043C004E011E0BFD68091A73ECC
:1013B0009091A83E01968093A73E9093A83EF4CDCD
:1013C000883190F4005100FD0DC084E289831A82B7
:1013D0001B8260E0CE0101962BD9043050F50EE659
:1013E00010E0E3CF1982F3CF88EE800F65E061D380
:1013F00010E000E075E0C72ED12C7601E91AF10863
:10140000202FC701800F911FB60173D366E97BE9D6
:10141000833010F069E97BE9822F06D90F5F1F4FF7
:101420000F30110569F70AE510E0BFCF04EB10E0BB
:10143000BCCF0CE310E0B9CF0091A73E1091A83EBD
:10144000C8016FE070E041D3B82EA82EE82EF92E27
:10145000C7010597E1D8C82E60E089E99BE9E8D883
:10146000D12CD0FC0FC0DA1469F0DC1459F02B89B0
:101470003C894D8929833A834B83BE016F5F7F4F3F
:101480008D2DD2D8D3943FE0D312EBCF80916C9BBB
:1014900090916D9BA0916E9B89839A83AB83BE01D3
:1014A0006F5F7F4F8B2DC0D880916F9B9091709B09
:1014B000A091719B89839A83AB83C7010197ACD8B4
:1014C000BE016F5F7F4FB0D88091729B9091739BEC
:1014D000A091749B89839A83AB83BE016F5F7F4F1A
:1014E0008C2DA2D88091759B9091769BA091779B33
:1014F00089839A83AB834C2D4150550BCA018CD8FC
:10150000BE016F5F7F4F90D810D60F5F1F4F0093C3
:10151000A73E1093A83E0AE510E046CD0091A73EF5
:101520001091A83E502F5770E52E19821A8281E043
:101530008B8360E0CE0101967BD888899989AA893E
:1015400089839A83AB83BE016F5F7F4F80E015D89C
:101550008091789B9091799BA0917A9B89839A83C3
:10156000AB83BE016F5F7F4F87E007D897E0F12C18
:10157000E91629F08E2D90E001964ED8F82E6CE9F0
:101580007BE98F2D51D8A7E0EA1691F080917B9BE3
:1015900090917C9BA0917D9B89839A83AB83EF2D57
:1015A000E150FF0BCF0138D8BE016F5F7F4F3CD8B1
:1015B000BCD50F5F1F4F0093A73E1093A83E05E5D3
:1015C00010E0F2CCE090A73EF090A83EC7016FE09B
:1015D00070E07BD2C82E992ED82E882339F08091C6
:1015E000A53E9091A63E892B09F042C08091003E15
:1015F0009091013E4DE6489F9001499F300D112486
:10160000275A3F4F832F6FE0A62EB12C90E0B501F3
:101610005CD201E010E002C0000F111F8A95E2F7D2
:10162000429FF001439FF00D1124E75AFF4F8F2F87
:1016300090E0B5014AD2A801082E02C05695479500
:101640000A94E2F740FF03C00596B50152D221E0AB
:1016500030E002C0220F331F8A95E2F7022B132BD2
:101660000093A53E1093A63EE093003EF093013E0A
:10167000198282E08A831B8260E0CE010196D8D76E
:101680002A853B854C8529833A834B83BE016F5F56
:101690007F4F8C2DC9D70C2D192DC8010197BCD7B0
:1016A0006FE97BE9C1D78D859E85AF8589839A8354
:1016B000AB83C8010297B0D7BE016F5F7F4FB4D72D
:1016C000198284E08A831B82C8010397A5D7BE01D3
:1016D0006F5F7F4FA9D710E000E04FE0C42E54E2C7
:1016E000B52E802F2091A53E3091A63E002E02C03F
:1016F000369527950A94E2F720FF14C0902F9D1984
:10170000D01610F09D2D901B2C2D291B921708F43C
:10171000292F223038F4B9821A821B82BE016F5FF2
:101720007F4F82D70F5F1F4F0F301105D1F6FDD4C9
:101730009FEFE91AF90AE092A73EF092A83E00E571
:1017400010E032CC0091A73E1091A83EC80162E2A1
:1017500070E0BBD10F5F1F4F8E3178F080FF08C063
:1017600019821A8284E28B8361E0CE01019699CDC1
:1017700084E289831A821B82F7CF6FE09AD1B92E57
:10178000C92ED12CC60107966FE070E0B2D17C0162
:101790002F813885498529833A834B8360E0CE01C8
:1017A000019646D794E2992E99821A821B82BE0135
:1017B0006F5F7F4F8B2D38D722E1A22EA9821A822C
:1017C0001B82C601019728D7BE016F5F7F4F2CD7C0
:1017D00036E0B32EB9821A821B82C60102971CD74B
:1017E000BE016F5F7F4F20D719821A829B82BE0194
:1017F0006F5F7F4F8E2D18D719821A82AB82C70177
:1018000001970AD7BE016F5F7F4F0ED719821A82E8
:10181000BB82C701029700D7BE016F5F7F4F04D71D
:1018200084D48FCCC090A73ED090A83EC6016EE174
:1018300070E04BD1082F11E08F3018F00DE1081B3C
:101840001FEF81E089831A821B8260E0CE0101963E
:10185000EFD68C819D81AE8189839A83AB83BE0153
:101860006F5F7F4F802FE0D682E189831A821B82CF
:10187000E12E110FFF0810E00E191F09C801CCD688
:10188000BE016F5F7F4FD0D689E089831A821B82A9
:101890000E191F09C801C0D6BE016F5F7F4FC4D6A5
:1018A00083E089831A821B82C8018E199F09B4D6EE
:1018B000BE016F5F7F4FB8D638D49FEFC91AD90ADF
:1018C000C092A73ED092A83E07E310E06DCB1092E5
:1018D000A93EC7D601E010E067CBEEEAFEE3158231
:1018E00082E09EE386839783148615861686178684
:1018F00081E083878087118682E082878DE290E095
:10190000828393838FE090E08083918384E084835B
:1019100084E294E0808B918B88E0828B08952F92F3
:101920003F924F925F926F927F928F929F92AF926F
:10193000BF92CF92DF92EF92FF920F931F93CF93BC
:10194000DF93CDB7DEB7CA1BDB0BCDBFDEBF09947B
:101950002A88398848885F846E847D848C849B843F
:10196000AA84B984C884DF80EE80FD800C811B814D
:10197000AA81B981CE0FD11DCDBFDEBFED01089583
:10198000FC010590061621F00020D9F7C00108954A
:101990003197CF0108950F931F93CF93DF93182FA3
:1019A000092FEB018B8181FD09C01FEF0FEF812F04
:1019B000902FDF91CF911F910F91089582FF14C056
:1019C0002E813F818C819D81281739073CF4E88165
:1019D000F981CF0101968883998310838E819F813D
:1019E00001968E839F83E3CFE885F985812F099542
:1019F000892BA1F3DACFFA01AA27283051F120313F
:101A000081F1E8946F936E7F6E5F7F4F8F4F9F4F92
:101A1000AF4FB1E03ED0B4E03CD0670F781F891FD4
:101A20009A1FA11D680F791F8A1F911DA11D6A0FA2
:101A3000711D811D911DA11D20D009F468943F9155
:101A40002AE0269F11243019305D3193DEF6CF0154
:101A50000895462F4770405D4193B3E00FD0C9F71A
:101A6000F6CF462F4F70405D4A3318F0495D31FD87
:101A70004052419302D0A9F7EACFB4E0A6959795DA
:101A8000879577956795BA95C9F7009761057105B0
:101A900008959B01AC010A2E0694579547953795FA
:101AA0002795BA95C9F7620F731F841F951FA01D54
:101AB0000895991B79E004C0991F961708F0961BAA
:101AC000881F7A95C9F780950895AA1BBB1B51E121
:101AD00007C0AA1FBB1FA617B70710F0A61BB70B9E
:101AE000881F991F5A95A9F780959095BC01CD0143
:101AF000089597FB072E16F4009406D077FD08D0C2
:101B0000E4DF07FC05D03EF4909581959F4F089542
:101B1000709561957F4F08950FD0A59F900DB49F4C
:101B2000900DA49F800D911D11240895EE0FFF1FAD
:101B30000590F491E02D0994A29FB001B39FC001DC
:101B4000A39F01D0B29F700D811D1124911D089596
:041B5000F894FFCF37
:101B540024030201000112240C000C0124090005D5
:101B64000503000C010024032412001207002400C2
:101B7400090C0012001224000C121415161731302F
:101B840001020408000010200000000000010224EB
:0E1B940000000024000000002424240024058A
:021BA200175AD0
:00000001FF
